:020000040800F2
:1000000000500020F9140008FD1200080313000836
:10001000091300080F130008151300080000000062
:100020000000000000000000000000001B1300089A
:100030002713000800000000331300083F130008D6
:100040004115000841150008411500084115000838
:100050004115000841150008411500084B13000820
:100060004115000841150008411500084115000818
:100070004115000841150008411500084115000808
:1000800041150008411500085913000841150008E2
:1000900041150008411500084115000841150008E8
:1000A00041150008411500084115000841150008D8
:1000B00041150008411500084115000841150008C8
:1000C00041150008411500084115000841150008B8
:1000D00041150008411500084115000841150008A8
:1000E00041150008411500084115000800000000F6
:1000F0000000000000000000000000000000000000
:0C01000000000000000000005FF808F1A3
:1001100010B5054C237833B9044B13B10448AFF341
:1001200000800123237010BDD401002000000000D6
:10013000C482000808B5034B1BB103490348AFF361
:10014000008008BD00000000D8010020C482000823
:10015000034613F8012B002AFBD1181A0138704707
:1001600081F0004102E000BF83F0004330B54FEA68
:1001700041044FEA430594EA050F08BF90EA020FD5
:100180001FBF54EA000C55EA020C7FEA645C7FEA68
:10019000655C00F0E2804FEA5454D4EB5555B8BF8B
:1001A0006D420CDD2C4480EA020281EA030382EAFC
:1001B000000083EA010180EA020281EA0303362D8E
:1001C00088BF30BD11F0004F4FEA01314FF4801C61
:1001D0004CEA113102D0404261EB410113F0004F73
:1001E0004FEA03334CEA133302D0524263EB43032A
:1001F00094EA050F00F0A780A4F10104D5F1200EC8
:100200000DDB02FA0EFC22FA05F2801841F1000122
:1002100003FA0EF2801843FA05F359410EE0A5F1F6
:1002200020050EF1200E012A03FA0EFC28BF4CF027
:10023000020C43FA05F3C01851EBE37101F00045DD
:1002400007D54FF0000EDCF1000C7EEB00006EEBEA
:100250000101B1F5801F1BD3B1F5001F0CD3490874
:100260005FEA30004FEA3C0C04F101044FEA4452CB
:1002700012F5800F80F09A80BCF1004F08BF5FEA52
:10028000500C50F1000041EB045141EA050130BD32
:100290005FEA4C0C404141EB0101013C28BFB1F544
:1002A000801FE9D291F0000F04BF01460020B1FA8F
:1002B00081F308BF2033A3F10B03B3F120020CDA62
:1002C0000C3208DD02F1140CC2F10C0201FA0CF040
:1002D00021FA02F10CE002F11402D8BFC2F1200CA5
:1002E00001FA02F120FA0CFCDCBF41EA0C0190405B
:1002F000E41AA2BF01EB0451294330BD6FEA0404A4
:100300001F3C1CDA0C340EDC04F11404C4F120028E
:1003100020FA04F001FA02F340EA030021FA04F3A0
:1003200045EA030130BDC4F10C04C4F1200220FAF7
:1003300002F001FA04F340EA0300294630BD21FA35
:1003400004F0294630BD94F0000F83F4801306BFFB
:1003500081F480110134013D4EE77FEA645C18BFEF
:100360007FEA655C29D094EA050F08BF90EA020F86
:1003700005D054EA000C04BF1946104630BD91EA7E
:10038000030F1EBF0021002030BD5FEA545C05D181
:100390004000494128BF41F0004130BD14F58004C0
:1003A0003CBF01F5801130BD01F0004545F0FE4134
:1003B00041F470014FF0000030BD7FEA645C1ABF69
:1003C000194610467FEA655C1CBF0B46024650EAA0
:1003D000013406BF52EA033591EA030F41F40021CC
:1003E00030BD00BF90F0000F04BF0021704730B552
:1003F0004FF4806404F132044FF000054FF0000127
:1004000050E700BF90F0000F04BF0021704730B5E7
:100410004FF4806404F1320410F0004548BF4042BC
:100420004FF000013EE700BF42004FEAE2014FEA11
:1004300031014FEA02701FBF12F07F4393F07F4FEC
:1004400081F06051704732F07F4208BF704793F0EF
:100450007F4F04BF41F40021704730B54FF4607402
:1004600001F0004521F000411CE700BF50EA010205
:1004700008BF704730B54FF000050AE050EA0102AE
:1004800008BF704730B511F0004502D5404261EB1E
:1004900041014FF4806404F132045FEA915C3FF45F
:1004A000D8AE4FF003025FEADC0C18BF03325FEAFC
:1004B000DC0C18BF033202EBDC02C2F1200300FAAD
:1004C00003FC20FA02F001FA03FE40EA0E0021FAD2
:1004D00002F11444BDE600BF70B54FF0FF0C4CF4C0
:1004E000E06C1CEA11541DBF1CEA135594EA0C0F72
:1004F00095EA0C0F00F0DEF82C4481EA030621EAAD
:100500004C5123EA4C5350EA013518BF52EA0335E7
:1005100041F4801143F4801338D0A0FB02CE4FF099
:100520000005E1FB02E506F00042E0FB03E54FF0C9
:100530000006E1FB03569CF0000F18BF4EF0010EC1
:10054000A4F1FF04B6F5007F64F5407404D25FEABD
:100550004E0E6D4146EB060642EAC62141EA555170
:100560004FEAC52040EA5E504FEACE2EB4F1FD0CB2
:1005700088BFBCF5E06F1ED8BEF1004F08BF5FEA30
:10058000500E50F1000041EB045170BD06F00046E2
:1005900046EA010140EA020081EA0301B4EB5C048F
:1005A000C2BFD4EB0C0541EA045170BD41F4801187
:1005B0004FF0000E013C00F3AB8014F1360FDEBFAC
:1005C000002001F0004170BDC4F10004203C35DA88
:1005D0000C341BDC04F11404C4F1200500FA05F30B
:1005E00020FA04F001FA05F240EA020001F00042AC
:1005F00021F0004110EBD37021FA04F642EB060122
:100600005EEA430E08BF20EAD37070BDC4F10C044B
:10061000C4F1200500FA04F320FA05F001FA04F20F
:1006200040EA020001F0004110EBD37041F10001FB
:100630005EEA430E08BF20EAD37070BDC4F1200506
:1006400000FA05F24EEA020E20FA04F301FA05F26E
:1006500043EA020321FA04F001F0004121FA04F216
:1006600020EA020000EBD3705EEA430E08BF20EAE6
:10067000D37070BD94F0000F0FD101F00046400020
:1006800041EB010111F4801F08BF013CF7D041EAA2
:10069000060195F0000F18BF704703F000465200A6
:1006A00043EB030313F4801F08BF013DF7D043EA77
:1006B0000603704794EA0C0F0CEA135518BF95EA2D
:1006C0000C0F0CD050EA410618BF52EA4306D1D1B4
:1006D00081EA030101F000414FF0000070BD50EAD3
:1006E000410606BF1046194652EA430619D094EA5D
:1006F0000C0F02D150EA013613D195EA0C0F05D147
:1007000052EA03361CBF104619460AD181EA03019A
:1007100001F0004141F0FE4141F470014FF0000052
:1007200070BD41F0FE4141F4780170BD70B54FF0ED
:10073000FF0C4CF4E06C1CEA11541DBF1CEA13556D
:1007400094EA0C0F95EA0C0F00F0A7F8A4EB05044F
:1007500081EA030E52EA03354FEA013100F0888046
:100760004FEA03334FF0805545EA131343EA12630F
:100770004FEA022245EA111545EA10654FEA0026C4
:100780000EF000419D4208BF964244F1FD0404F57D
:10079000407402D25B084FEA3202B61A65EB0305D9
:1007A0005B084FEA32024FF480104FF4002CB6EB96
:1007B000020E75EB030E22BFB61A754640EA0C0016
:1007C0005B084FEA3202B6EB020E75EB030E22BF56
:1007D000B61A754640EA5C005B084FEA3202B6EB97
:1007E000020E75EB030E22BFB61A754640EA9C0056
:1007F0005B084FEA3202B6EB020E75EB030E22BF26
:10080000B61A754640EADC0055EA060E18D04FEAE3
:10081000051545EA16754FEA06164FEAC30343EA83
:1008200052734FEAC2025FEA1C1CC0D111F4801F50
:100830000BD141EA00014FF000004FF0004CB6E749
:1008400011F4801F04BF01430020B4F1FD0C88BFE8
:10085000BCF5E06F3FF6AFAEB5EB030C04BFB6EBF3
:10086000020C5FEA500C50F1000041EB045170BDE6
:100870000EF0004E4EEA113114EB5C04C2BFD4EB13
:100880000C0541EA045170BD41F480114FF0000E97
:10089000013C90E645EA060E8DE60CEA135594EA13
:1008A0000C0F08BF95EA0C0F3FF43BAF94EA0C0F16
:1008B0000AD150EA01347FF434AF95EA0C0F7FF48B
:1008C00025AF104619462CE795EA0C0F06D152EADF
:1008D00003353FF4FDAE1046194622E750EA4106C3
:1008E00018BF52EA43067FF4C5AE50EA41047FF4D4
:1008F0000DAF52EA43057FF4EBAE12E74FF0FF3C39
:1009000006E000BF4FF0010C02E000BF4FF0010C09
:100910004DF804CD4FEA410C7FEA6C5C4FEA430C82
:1009200018BF7FEA6C5C1BD001B050EA410C0CBFD1
:1009300052EA430C91EA030F02BF90EA020F002033
:10094000704710F1000F91EA030F58BF994208BF9A
:1009500090422CBFD8176FEAE37040F00100704757
:100960004FEA410C7FEA6C5C02D150EA013C07D1AE
:100970004FEA430C7FEA6C5CD6D152EA033CD3D0F9
:100980005DF8040B704700BF8446104662468C46F3
:100990001946634600E000BF01B5FFF7B7FF002826
:1009A00048BF10F1000F01BD4DF808EDFFF7F4FF4F
:1009B0000CBF012000205DF808FB00BF4DF808EDDA
:1009C000FFF7EAFF34BF012000205DF808FB00BFFD
:1009D0004DF808EDFFF7E0FF94BF012000205DF81F
:1009E00008FB00BF4DF808EDFFF7CEFF94BF0120D4
:1009F00000205DF808FB00BF4DF808EDFFF7C4FFCD
:100A000034BF012000205DF808FB00BF4FEA410C15
:100A10007FEA6C5C02D150EA013C0AD14FEA430CF8
:100A20007FEA6C5C02D152EA033C02D14FF0000035
:100A300070474FF0010070474FEA410212F5001273
:100A400015D211D56FF47873B3EB625212D94FEA15
:100A5000C12343F0004343EA505311F0004F23FAFF
:100A600002F018BF404270474FF00000704750EA54
:100A7000013005D111F0004008BF6FF00040704711
:100A80004FF00000704700BF4A0011D212F500126B
:100A900011D20DD56FF47873B3EB62520ED44FEAD6
:100AA000C12343F0004343EA505323FA02F0704756
:100AB0004FF00000704750EA013002D14FF0FF3094
:100AC00070474FF0000070474FEA4102B2F1E04337
:100AD00024BFB3F5001CDCF1FE5C0DD901F0004C25
:100AE0004FEAC0024CEA5070B2F1004F40EB830075
:100AF00008BF20F00100704711F0804F21D113F1A1
:100B00003872BCBF01F00040704741F480114FEAD9
:100B10005252C2F11802C2F1200C10FA0CF320FA62
:100B200002F018BF40F001004FEAC1234FEAD3237F
:100B300003FA0CFC40EA0C0023FA02F34FEA4303E9
:100B4000CCE77FEA625307D150EA01331EBF4FF072
:100B5000FE4040F44000704701F0004040F0FE408D
:100B600040F40000704700BF4FF0FF3C06E000BFBC
:100B70004FF0010C02E000BF4FF0010C4DF804CD26
:100B80004FEA40024FEA41037FEA226C18BF7FEA36
:100B9000236C11D001B052EA530C18BF90EA010F38
:100BA00058BFB2EB030088BFC81738BF6FEAE170C7
:100BB00018BF40F0010070477FEA226C02D15FEA63
:100BC000402C05D17FEA236CE4D15FEA412CE1D0CF
:100BD0005DF8040B704700BF844608466146FFE796
:100BE0000FB5FFF7C9FF002848BF10F1000F0FBD78
:100BF0004DF808EDFFF7F4FF0CBF012000205DF871
:100C000008FB00BF4DF808EDFFF7EAFF34BF0120F5
:100C100000205DF808FB00BF4DF808EDFFF7E0FF8E
:100C200094BF012000205DF808FB00BF4DF808EDDF
:100C3000FFF7D2FF94BF012000205DF808FB00BF42
:100C40004DF808EDFFF7C8FF34BF012000205DF824
:100C500008FB00BF38B505460C4600220023284695
:100C60002146FFF7ABFE28B928462146BDE83840AB
:100C700000F00AB8284604F1004100F005F84042AF
:100C800061EB410138BD00BFD0B500220B4B0646D9
:100C90000F46FFF721FCFFF7F7FE0446FFF7A2FB24
:100CA0000022074BFFF718FC02460B463046394638
:100CB000FFF75AFAFFF7E8FE2146D0BD0000F03DED
:100CC0000000F04180B586B002AF0346FB71FB79AE
:100CD00023F00F03FB73FB791B01BB73FB7B43F01A
:100CE0000C03DBB23B72FB7B43F00803DBB27B728D
:100CF000BB7B43F00C03DBB2BB72BB7B43F008034E
:100D0000DBB2FB7207F108026423009304234E2137
:100D1000034801F063FE00BF1037BD4680BD00BF31
:100D20002002002080B586B002AF0346FB71FB793C
:100D300023F00F03FB73FB791B01BB73FB7B43F0B9
:100D40000D03DBB23B72FB7B43F00903DBB27B722A
:100D5000BB7B43F00D03DBB2BB72BB7B43F00903EB
:100D6000DBB2FB7207F108026423009304234E21D7
:100D7000034801F033FE00BF1037BD4680BD00BF01
:100D80002002002080B500AF3320FFF79BFF322008
:100D9000FFF798FF322000F037FC2820FFF792FF82
:100DA000322000F031FC0120FFF78CFF322000F0F0
:100DB0002BFC0620FFF786FF322000F025FC0C20DC
:100DC000FFF780FF322000F01FFC0220FFF77AFFC0
:100DD000322000F019FC8020FFF774FF00BF80BDB7
:100DE00080B582B000AF786006E07B685A1C7A60FC
:100DF0001B781846FFF796FF7B681B78002BF4D111
:100E000000BF00BF0837BD4680BD80B500AF0120E0
:100E1000FFF758FF00BF80BD80B584B000AF786099
:100E200039607B68002B04D13B68DBB2803BFB73ED
:100E300006E07B68012B03D13B68DBB2403BFB73D0
:100E4000FB7B1846FFF73EFF00BF1037BD4680BD55
:100E500080B582B000AF00F075FB00F075F800F0CF
:100E60002FF900F0C1F800F0FDF8FFF78BFF3048D4
:100E700001F0ECF82E4800F0C3FC4FF47A712C48D6
:100E800000F06CFD2A4800F06FFE0346FB80FB88F3
:100E90001846FFF7B7FA4FF00002264BFFF746FC63
:100EA00002460B46104619461FA3D3E90023FFF75D
:100EB00013FB02460B4610461946FFF705FE034694
:100EC0001D4A13601C4B1B684FF07E511846FFF7FC
:100ED00099FE0346002B11D001224FF40061174800
:100EE00001F0FEFB00210020FFF796FF1448FFF7FA
:100EF00077FF4FF47A7000F087FB0EE000224FF48A
:100F000000610E4801F0ECFBFFF77FFF002100209D
:100F1000FFF782FF0B48FFF763FF4FF47A7000F092
:100F200073FBA7E7AFF300806666666666660A40F5
:100F3000F00100200000B0407402002000080140D1
:100F4000E0820008EC82000880B594B000AF07F1A1
:100F5000280328220021184603F093FD07F114030B
:100F600000221A605A609A60DA601A613B1D002202
:100F70001A605A609A60DA600223BB620123BB6385
:100F80001023FB6300237B6407F12803184602F05B
:100F90007DF80346002B01D000F0F6F80F237B61AB
:100FA0000023BB610023FB6100233B6200237B62C3
:100FB00007F114030021184602F0EAFA0346002B59
:100FC00001D000F0E1F802237B600023FB603B1DB1
:100FD000184602F06BFC0346002B01D000F0D4F859
:100FE00000BF5037BD4680BD80B584B000AF3B1D0B
:100FF00000221A605A609A60184B194A1A60174BFF
:1010000000229A60154B00221A73144B00221A75A5
:10101000124B4FF46022DA61104B00225A600F4BE2
:1010200001221A610D4800F013FB0346002B01D08A
:1010300000F0AAF803237B600123BB600023FB6060
:101040003B1D1946054800F06DFE0346002B01D0FC
:1010500000F09AF800BF1037BD4680BDF0010020B7
:101060000024014080B500AF124B134A1A60114BA7
:10107000124A5A600F4B00229A600E4B0022DA602F
:101080000C4B4FF480421A610A4B00225A61094B03
:1010900000229A61074B0022DA61064B00221A6295
:1010A000044801F057FB0346002B01D000F06CF818
:1010B00000BF80BD2002002000540040A086010037
:1010C00080B588B000AF07F1100300221A605A60A3
:1010D0009A60DA60284B9B69274A43F020039361AA
:1010E000254B9B6903F02003FB60FB68224B9B6947
:1010F000214A43F0040393611F4B9B6903F00403EF
:10110000BB60BB681C4B9B691B4A43F0080393619F
:10111000194B9B6903F008037B607B6800224FF446
:101120000061164801F0DCFA02233B61144B7B613D
:101130000023BB6107F110031946124801F04CF976
:101140004FF400633B6101237B610023BB610223F9
:10115000FB6107F110031946084801F03DF9002230
:101160000221072001F001F9072001F01AF900BF60
:101170002037BD4680BD00BF00100240000801407E
:1011800000001110000C014080B400AF72B600BF27
:10119000FEE7000080B485B000AF154B9B69144A90
:1011A00043F001039361124B9B6903F00103BB60A1
:1011B000BB680F4BDB690E4A43F08053D3610C4B85
:1011C000DB6903F080537B607B680A4B5B68FB60E4
:1011D000FB6823F0E063FB60FB6843F00073FB6097
:1011E000044AFB68536000BF1437BD4680BC70479B
:1011F000001002400000014080B588B000AF786068
:1012000007F1100300221A605A609A60DA607B6866
:101210001B68184A934229D1174B9B69164A43F41D
:1012200000739361144B9B6903F40073FB60FB68CC
:10123000114B9B69104A43F0040393610E4B9B6969
:1012400003F00403BB60BB6808233B6103237B619D
:1012500007F110031946094801F0BEF800220021E9
:10126000122001F082F8122001F09BF800BF203715
:10127000BD4680BD0024014000100240000801402E
:1012800080B588B000AF786007F1100300221A60C3
:101290005A609A60DA607B681B68154A934223D1D2
:1012A000144B9B69134A43F008039361114B9B69EC
:1012B00003F00803FB60FB68C0233B6112237B61E2
:1012C0000323FB6107F1100319460B4801F084F872
:1012D000084BDB69074A43F40013D361054BDB6914
:1012E00003F40013BB60BB6800BF2037BD4680BD60
:1012F0000054004000100240000C014080B400AFD8
:10130000FEE780B400AFFEE780B400AFFEE780B434
:1013100000AFFEE780B400AFFEE780B400AF00BFCF
:10132000BD4680BC704780B400AF00BFBD4680BCE6
:10133000704780B400AF00BFBD4680BC704780B529
:1013400000AF00F045F900BF80BD80B500AF0220BE
:1013500001F0DEF900BF80BD80B500AF024800F0AB
:101360000FFC00BF80BD00BFF001002080B400AFC3
:1013700001231846BD4680BC704780B582B000AFDF
:101380007860396003F0D0FB034616221A604FF0F4
:10139000FF3318460837BD4680BD80B582B000AF28
:1013A00078604FF0FF317868FFF7E7FFFEE780B520
:1013B00086B000AFF860B9607A6000237B610AE014
:1013C000AFF300800146BB685A1CBA60CAB21A70FB
:1013D0007B6901337B617A697B689A42F0DB7B68C9
:1013E00018461837BD4680BD80B586B000AFF8609E
:1013F000B9607A6000237B6109E0BB685A1CBA605F
:101400001B781846AFF300807B6901337B617A69F2
:101410007B689A42F1DB7B6818461837BD4680BD71
:1014200080B483B000AF78604FF0FF3318460C37BC
:10143000BD4680BC704780B483B000AF786039602F
:101440003B684FF400525A60002318460C37BD46E3
:1014500080BC704780B483B000AF78600123184629
:101460000C37BD4680BC704780B485B000AFF860D3
:10147000B9607A60002318461437BD4680BC7047B7
:1014800080B586B000AF7860144A154BD31A7B61E3
:101490007B693B61134B1B68002B02D1114B124A35
:1014A0001A60104B1A687B6813443A699A4207D253
:1014B00003F03AFB03460C221A604FF0FF3309E0B9
:1014C000084B1B68FB60074B1A687B681344054A8E
:1014D0001360FB6818461837BD4680BD00500020D9
:1014E0000004000078020020D003002080B400AF88
:1014F00000BFBD4680BC7047FFF7F8FF0B480C49A2
:101500000C4A002302E0D458C4500433C4188C425F
:10151000F9D3094A094C002301E013600432A242C6
:10152000FBD303F007FBFFF793FC7047000000209C
:10153000D401002068870008D4010020CC030020DB
:10154000FEE7000080B500AF084B1B68074A43F078
:1015500010031360032000F0FDFE0F2000F008F8D8
:10156000FFF718FE0023184680BD00BF0020024090
:1015700080B582B000AF7860124B1A68124B1B78AE
:1015800019464FF47A73B3FBF1F3B2FBF3F3184649
:1015900000F015FF0346002B01D001230EE07B680D
:1015A0000F2B0AD8002279684FF0FF3000F0DDFEE3
:1015B000064A7B681360002300E0012318460837C1
:1015C000BD4680BD0000002008000020040000206F
:1015D00080B400AF054B1B781A46054B1B681344BB
:1015E000034A136000BFBD4680BC7047080000205E
:1015F0007C02002080B400AF024B1B681846BD4639
:1016000080BC70477C02002080B584B000AF786059
:10161000FFF7F0FFB8607B68FB60FB68B3F1FF3F4A
:1016200005D00A4B1B781A46FB681344FB6000BFC9
:10163000FFF7E0FF0246BB68D31AFA689A42F7D870
:1016400000BF00BF1037BD4680BD00BF08000020AE
:1016500080B586B000AF78600023FB7500233B6146
:101660000023BB600023FB607B68002B01D10123BA
:10167000BEE07B689B68002B7B689B6A002B09D1CE
:101680007B680022DA627B68002283F82420786875
:10169000FFF7B2FD786800F097FC0346FB757B68A6
:1016A0009B6A03F01003002B40F09980FB7D002B18
:1016B00040F095807B689B6A23F4885323F00203F3
:1016C00043F002027B689A627B685A687B68DB6938
:1016D0001A437B681B7B5B001343BA681343BB60F0
:1016E0007B689B68B3F5807F03D07B689B68012B88
:1016F00002D14FF4807300E000233A6913433B6149
:101700007B681B7D012B19D17B681B7B002B09D1CA
:101710007B689B69013B5A033B69134343F40063B5
:101720003B610BE07B689B6A43F020027B689A6216
:101730007B68DB6A43F001027B68DA627B681B68C6
:101740005B6823F469417B681B683A690A435A6005
:101750007B681B689A68284B13407A681268B968DE
:101760000B4393607B689B68B3F5807F03D07B68F5
:101770009B68012B04D17B681B69013B1B05FB6047
:101780007B681B68DB6A23F470017B681B68FA685E
:101790000A43DA627B681B689A68184B1340BA6880
:1017A0009A420BD17B680022DA627B689B6A23F045
:1017B000030343F001027B689A6218E07B689B6A2E
:1017C00023F0120343F010027B689A627B68DB6AA5
:1017D00043F001027B68DA620123FB7507E07B6856
:1017E0009B6A43F010027B689A620123FB75FB7DC4
:1017F00018461837BD4680BDFDF7E1FFFE0E1FFFFE
:1018000080B584B000AF78600023FB737B6893F8E9
:101810002430012B01D1022398E07B68012283F858
:101820002420786800F076FB0346FB73FB7B002BDB
:1018300040F087807B689B6A23F4407323F00103A8
:1018400043F480727B689A627B681B68414A9342CA
:1018500005D1414B5B6803F47023002B15D17B68E5
:101860009B6A23F480127B689A627B681B685B68C2
:1018700003F48063002B26D07B689B6A23F44053DB
:1018800043F480527B689A621DE07B689B6A43F454
:1018900080127B689A627B681B682F4A934204D04F
:1018A0007B681B682B4A93420DD12B4B5B6803F47A
:1018B0008063002B07D07B689B6A23F4405343F47A
:1018C00080527B689A627B689B6A03F48053002B8A
:1018D00006D07B68DB6A23F006027B68DA6202E0EE
:1018E0007B680022DA627B68002283F824207B6810
:1018F0001B686FF002021A607B681B689B6803F428
:101900006023B3F5602F13D17B681B68114A9342A3
:1019100005D1114B5B6803F47023002B08D17B6861
:101920001B689A687B681B6842F4A0029A600CE00E
:101930007B681B689A687B681B6842F480129A6017
:1019400003E07B68002283F82420FB7B18461037D5
:10195000BD4680BD002801400024014090B587B0FD
:1019600000AF7860396000237B610023FB600023B7
:101970003B61FFF73FFE78617B681B689B6803F45F
:101980008073002B0BD07B689B6A43F020027B683E
:101990009A627B68002283F824200123D3E07B68CD
:1019A0001B685B6803F48073002B31D17B681B6874
:1019B000DB6A03F47003002B2AD121E03B68B3F10A
:1019C000FF3F1DD03B68002B07D0FFF713FE0246F8
:1019D0007B69D31A3A689A4212D27B681B681B68EB
:1019E00003F00203002B0BD17B689B6A43F00402D7
:1019F0007B689A627B68002283F824200323A2E09C
:101A00007B681B681B6803F00203002BD6D070E0D4
:101A10004F4B1C68022001F0FFFF0346B4FBF3F2BA
:101A20007B681B6819694B4B0B40002B18D17B68F6
:101A30001B68D968484B0B40002B11D17B681B6891
:101A40001969464B0B40002B08D17B681B68D9688D
:101A5000434B0B40002B01D1142320E029231EE02F
:101A60007B681B6819693D4B0B40002B06D17B68D6
:101A70001B68D9683A4B0B40002B0DD07B681B6864
:101A80001969384B0B40002B08D17B681B68D9685B
:101A9000344B0B40002B01D1542300E0FC2302FB0C
:101AA00003F33B6121E03B68B3F1FF3F1AD03B6891
:101AB000002B07D0FFF79EFD02467B69D31A3A68D8
:101AC0009A420FD2FB683A699A420BD97B689B6AAB
:101AD00043F004027B689A627B68002283F824202A
:101AE000032330E0FB680133FB60FB683A699A42EC
:101AF000D9D87B681B686FF012021A607B689B6AFA
:101B000043F400727B689A627B681B689B6803F4ED
:101B10006023B3F5602F15D17B681B7B002B11D19F
:101B20007B689B6A23F480727B689A627B689B6AFD
:101B300003F48053002B05D17B689B6A43F00102BC
:101B40007B689A62002318461C37BD4690BD00BFD3
:101B50000000002024499224244992009224491232
:101B6000922449004992240080B483B000AF786089
:101B70007B681B68DB6C18460C37BD4680BC704721
:101B800080B584B000AF78607B681B681B68FB6021
:101B90007B681B685B68BB60BB6803F02003002B9D
:101BA0003ED0FB6803F00203002B39D07B689B6AB0
:101BB00003F01003002B05D17B689B6A43F400728D
:101BC0007B689A627B681B689B6803F46023B3F5AB
:101BD000602F1DD17B681B7B002B19D17B681B6894
:101BE0005A687B681B6822F020025A607B689B6AF7
:101BF00023F480727B689A627B689B6A03F480534B
:101C0000002B05D17B689B6A43F001027B689A62D6
:101C1000786800F074F87B681B686FF012021A6035
:101C2000BB6803F08003002B4DD0FB6803F0040376
:101C3000002B48D07B689B6A03F01003002B05D172
:101C40007B689B6A43F400527B689A627B681B68DE
:101C50009B6803F4E043B3F5E04F12D07B681B6848
:101C60005B6803F48063002B25D17B681B689B684D
:101C700003F46023B3F5602F1DD17B681B7B002B21
:101C800019D17B681B685A687B681B6822F0800248
:101C90005A607B689B6A23F480527B689A627B68F7
:101CA0009B6A03F48073002B05D17B689B6A43F029
:101CB00001027B689A62786800F076FA7B681B689C
:101CC0006FF00C021A60BB6803F04003002B12D0C7
:101CD000FB6803F00103002B0DD07B689B6A43F483
:101CE00080327B689A62786800F012F87B681B6823
:101CF0006FF001021A6000BF1037BD4680BD80B48E
:101D000083B000AF786000BF0C37BD4680BC704721
:101D100080B483B000AF786000BF0C37BD4680BC94
:101D20007047000080B485B000AF78603960002350
:101D3000FB730023BB607B6893F82430012B01D137
:101D40000223DCE07B68012283F824203B685B6887
:101D5000062B1CD87B681B68596B3B685A68134676
:101D60009B001344053B1F2202FA03F3DB43194097
:101D70003B6818683B685A6813469B001344053B50
:101D800000FA03F27B681B680A435A633CE03B6835
:101D90005B680C2B1CD87B681B68196B3B685A6806
:101DA00013469B001344233B1F2202FA03F3DB4339
:101DB00019403B6818683B685A6813469B001344F7
:101DC000233B00FA03F27B681B680A431A631BE09B
:101DD0007B681B68D96A3B685A6813469B001344AA
:101DE000413B1F2202FA03F3DB4319403B681868AA
:101DF0003B685A6813469B001344413B00FA03F2C8
:101E00007B681B680A43DA623B681B68092B1CD994
:101E10007B681B68D9683B681A6813465B001344EB
:101E20001E3B072202FA03F3DB4319403B68986824
:101E30003B681A6813465B0013441E3B00FA03F22A
:101E40007B681B680A43DA6019E07B681B681969C4
:101E50003B681A6813465B001344072202FA03F337
:101E6000DB4319403B6898683B681A6813465B007F
:101E7000134400FA03F27B681B680A431A613B684B
:101E80001B68102B03D03B681B68112B32D17B6879
:101E90001B681D4A934225D17B681B689B6803F42D
:101EA0000003002B26D17B681B689A687B681B683F
:101EB00042F400029A603B681B68102B1AD1134B46
:101EC0001B68134AA2FB03239A0C13469B0013447E
:101ED0005B00BB6002E0BB68013BBB60BB68002BE2
:101EE000F9D107E07B689B6A43F020027B689A6225
:101EF0000123FB737B68002283F82420FB7B1846B8
:101F00001437BD4680BC704700240140000000200B
:101F100083DE1B4380B584B000AF78600023FB6094
:101F20000023BB607B681B689B6803F00103012BE7
:101F300040D07B681B689A687B681B6842F001028E
:101F40009A601F4B1B681F4AA2FB03239B0CBB60BC
:101F500002E0BB68013BBB60BB68002BF9D1FFF717
:101F600049FBF8601FE0FFF745FB0246FB68D31A08
:101F7000022B18D97B681B689B6803F00103012BB7
:101F800011D07B689B6A43F010027B689A627B6881
:101F9000DB6A43F001027B68DA627B68002283F827
:101FA0002420012307E07B681B689B6803F0010382
:101FB000012BD8D1002318461037BD4680BD00BF85
:101FC0000000002083DE1B4380B584B000AF786042
:101FD0000023FB607B681B689B6803F00103012BF7
:101FE0002ED17B681B689A687B681B6822F001020F
:101FF0009A60FFF7FFFAF8601BE0FFF7FBFA024672
:10200000FB68D31A022B14D97B681B689B6803F00A
:102010000103012B0DD17B689B6A43F010027B68A2
:102020009A627B68DB6A43F001027B68DA62012313
:1020300007E07B681B689B6803F00103012BDCD081
:10204000002318461037BD4680BD000090B587B00C
:1020500000AF78600023FB750023FB607B6893F87A
:102060002430012B01D1022397E07B68012283F801
:1020700024207868FFF7A8FF0346FB757868FFF710
:1020800049FF0346FB75FB7D002B40F081807B6898
:102090009B6A23F4885323F0020343F002027B6817
:1020A0009A62404B1C68022001F0B6FC0346B4FB68
:1020B000F3F35B00FB6002E0FB68013BFB60FB6845
:1020C000002BF9D17B681B689A687B681B6842F01B
:1020D00008029A60FFF78EFA38611BE0FFF78AFA70
:1020E00002463B69D31A0A2B14D97B681B689B688C
:1020F00003F00803002B0DD07B689B6A23F01203CA
:1021000043F010027B689A627B68002283F82420E7
:10211000012342E07B681B689B6803F00803002BE7
:10212000DCD17B681B689A687B681B6842F00402FC
:102130009A60FFF75FFA38611BE0FFF75BFA02462F
:102140003B69D31A0A2B14D97B681B689B6803F080
:102150000403002B0DD07B689B6A23F0120343F02D
:1021600010027B689A627B68002283F82420012396
:1021700013E07B681B689B6803F00403002BDCD131
:102180007B689B6A23F0030343F001027B689A6239
:102190007B68002283F82420FB7D18461C37BD464F
:1021A00090BD00BF0000002080B483B000AF786015
:1021B00000BF0C37BD4680BC7047000080B485B0BE
:1021C00000AF78607B6803F00703FB600C4BDB68B3
:1021D000BB60BA684FF6FF031340BB60FB681A028E
:1021E000BB68134343F0BF6343F40033BB60044A4E
:1021F000BB68D36000BF1437BD4680BC704700BFCA
:1022000000ED00E080B400AF044BDB681B0A03F074
:1022100007031846BD4680BC704700BF00ED00E0D4
:1022200080B483B000AF0346FB7197F90730002BF1
:102230000BDBFB7903F01F02064997F907305B09B6
:10224000012000FA02F241F8232000BF0C37BD46FE
:1022500080BC704700E100E080B483B000AF03466B
:102260003960FB7197F90730002B0ADB3B68DAB263
:102270000C4997F907301201D2B20B4483F80023BE
:102280000AE03B68DAB20849FB7903F00F03043B2C
:102290001201D2B20B441A7600BF0C37BD4680BC87
:1022A000704700BF00E100E000ED00E080B489B0BD
:1022B00000AFF860B9607A60FB6803F00703FB6168
:1022C000FB69C3F10703042B28BF0423BB61FB692F
:1022D0000433062B02D9FB69033B00E000237B613A
:1022E0004FF0FF32BB6902FA03F3DA43BB681A40CE
:1022F0007B699A404FF0FF317B6901FA03F3D943C0
:102300007B680B40134318462437BD4680BC70479A
:1023100080B582B000AF78607B68013BB3F1807F0D
:1023200001D301230FE00A4A7B68013B53600F2170
:102330004FF0FF30FFF790FF054B00229A60044BEF
:1023400007221A60002318460837BD4680BD00BF2B
:1023500010E000E080B582B000AF78607868FFF7E9
:102360002DFF00BF0837BD4680BD80B586B000AFE9
:102370000346B9607A60FB7300237B61FFF742FF7D
:1023800078617A68B9687869FFF790FF024697F933
:102390000F3011461846FFF75FFF00BF1837BD46E4
:1023A00080BD80B582B000AF0346FB7197F907305E
:1023B0001846FFF735FF00BF0837BD4680BD80B522
:1023C00082B000AF78607868FFF7A2FF0346184636
:1023D0000837BD4680BD000080B48BB000AF786088
:1023E000396000237B6200233B6269E101227B6A42
:1023F00002FA03F3FB613B681B68FA691340BB6197
:10240000BA69FB699A4240F058813B685B689A4A16
:1024100093425ED0984A934275D8984A934258D0D6
:10242000964A93426FD8964A934252D0944A934226
:1024300069D8944A93424CD0924A934263D8924AC4
:10244000934246D0904A93425DD8122B2AD8122B41
:1024500059D801A252F823F0D3240008AD24000873
:10246000BF240008012500080725000807250008EB
:10247000072500080725000807250008072500088C
:10248000072500080725000807250008072500087C
:10249000072500080725000807250008B5240008BF
:1024A000C9240008794A934213D02CE03B68DB68CA
:1024B0003B6229E03B68DB6804333B6224E03B6815
:1024C000DB6808333B621FE03B68DB680C333B6230
:1024D0001AE03B689B68002B02D104233B6213E0A7
:1024E0003B689B68012B05D108233B627B68FA6936
:1024F0001A6109E008233B627B68FA695A6103E0CC
:1025000000233B6200E000BFBB69FF2B01D87B6862
:1025100001E07B6804337B61BB69FF2B02D87B6AD7
:102520009B0002E07B6A083B9B003B617B691A6869
:102530000F213B6901FA03F3DB431A40396A3B6917
:1025400001FA03F31A437B691A603B685B6803F086
:102550008053002B00F0B1804D4B9B694C4A43F0F7
:10256000010393614A4B9B6903F00103BB60BB68A5
:10257000484A7B6A9B08023352F82330FB607B6A2F
:1025800003F003039B000F2202FA03F3DB43FA6814
:102590001340FB607B68404A934213D07B683F4AFC
:1025A00093420DD07B683E4A934207D07B683D4AF8
:1025B000934201D1032306E0042304E0022302E056
:1025C000012300E000237A6A02F0030292009340A4
:1025D000FA681343FB602F497B6A9B080233FA6851
:1025E00041F823203B685B6803F48013002B06D07E
:1025F0002D4B9A682C49BB6913438B6006E02A4B2C
:102600009A68BB69DB43284913408B603B685B6871
:1026100003F40013002B06D0234BDA682249BB6970
:102620001343CB6006E0204BDA68BB69DB431E49ED
:102630001340CB603B685B6803F40033002B06D08B
:10264000194B5A681849BB6913434B6006E0164B97
:102650005A68BB69DB43144913404B603B685B68B5
:1026600003F48033002B21D00F4B1A680E49BB694D
:1026700013430B6021E000BF000032100000311056
:1026800000002210000021100000121000001110A4
:10269000001002400000014000080140000C014011
:1026A0000010014000140140000401400B4B1A6867
:1026B000BB69DB43094913400B607B6A01337B62D2
:1026C0003B681A687B6A22FA03F3002B7FF48EAE14
:1026D00000BF00BF2C37BD4680BC704700040140DE
:1026E00080B483B000AF78600B467B8013467B706C
:1026F0007B78002B03D07A887B681A6103E07B88A3
:102700001A047B681A6100BF0C37BD4680BC704755
:1027100080B582B000AF0346FB80084B5A69FB8846
:102720001340002B06D0054AFB885361FB881846EE
:1027300000F006F800BF0837BD4680BD0004014028
:1027400080B483B000AF0346FB8000BF0C37BD46AA
:1027500080BC704780B584B000AF78607B68002B88
:1027600001D101232BE17B6893F83D30DBB2002BD4
:1027700006D17B68002283F83C207868FEF780FD54
:102780007B68242283F83D207B681B681A687B687D
:102790001B6822F001021A607B681B681A687B685C
:1027A0001B6842F400421A607B681B681A687B68E9
:1027B0001B6822F400421A6001F032F8F8607B686E
:1027C0005B68814A934207D8FB68804A934294BF72
:1027D00001230023DBB206E0FB687D4A934294BFED
:1027E00001230023DBB2002B01D00123E7E0FB68CB
:1027F000784AA2FB03239B0CBB607B681B685B6869
:1028000023F03F017B681B68BA680A435A607B6803
:102810001B681B6A23F03F017B685B686A4A93422E
:1028200002D8BB68013309E0BB684FF4967202FB23
:1028300003F3694AA2FB03239B0901337A681268F8
:102840000B4313627B681B68DB6923F44F4222F061
:10285000FF027B685B685C498B4219D8FB68591E94
:102860007B685B685B00B1FBF3F3591C40F6FC73BB
:102870000B40002B0AD0FB68591E7B685B685B002D
:10288000B1FBF3F30133C3F30B0351E004234FE037
:102890007B689B68002B11D1FB68581E7B685968C8
:1028A0000B465B000B44B0FBF3F30133C3F30B03A4
:1028B000002B0CBF01230023DBB212E0FB68581E83
:1028C0007B6859680B469B000B4499000B44B0FB96
:1028D000F3F30133C3F30B03002B0CBF01230023DD
:1028E000DBB2002B01D0012322E07B689B68002B28
:1028F0000ED1FB68581E7B6859680B465B000B4481
:10290000B0FBF3F30133C3F30B0343F400430FE0D5
:10291000FB68581E7B6859680B469B000B44990066
:102920000B44B0FBF3F30133C3F30B0343F4404315
:10293000796809681343CB617B681B681B6823F0C7
:10294000C0017B68DA697B681B6A1A437B681B6875
:102950000A431A607B681B689B6823F4034323F0D7
:10296000FF037A6811697A68D26811437A6812683D
:102970000B4393607B681B68DB6823F0FF017B6877
:102980005A697B689B691A437B681B680A43DA6053
:102990007B681B681A687B681B6842F001021A603A
:1029A0007B6800221A647B68202283F83D207B68C4
:1029B00000221A637B68002283F83E200023184619
:1029C0001037BD4680BD00BFA08601007F841E0079
:1029D000FF083D0083DE1B43D34D621080B588B0F5
:1029E00002AFF8607A601A460B467B8113463B8142
:1029F000FEF700FE7861FB6893F83D30DBB2202BD8
:102A000040F0E0807B690093192301227049F86847
:102A100000F064F90346002B01D00223D3E0FB68E9
:102A200093F83C30012B01D10223CCE0FB6801225A
:102A300083F83C20FB681B681B6803F00103012B33
:102A400007D0FB681B681A68FB681B6842F001022C
:102A50001A60FB681B681A68FB681B6822F4006236
:102A60001A60FB68212283F83D20FB68102283F85E
:102A70003E20FB6800221A64FB687A685A62FB6891
:102A80003A895A85FB685B8D9AB2FB681A85FB68A8
:102A9000504ADA6279897B693A6AF86800F09CF8F2
:102AA0000346002B01D001238DE000233B61FB682E
:102AB0001B685B693B61FB681B689B693B613B6909
:102AC00066E07A69396AF86800F022FA0346002B5A
:102AD0000DD0FB681B6C042B07D1FB681B681A68C0
:102AE000FB681B6842F400721A6001236BE0FB680C
:102AF0005B6A1A78FB681B681A61FB685B6A5A1C80
:102B0000FB685A62FB685B8D9BB2013B9AB2FB6823
:102B10005A85FB681B8D013B9AB2FB681A85FB68DE
:102B20001B685B6903F00403042B1BD1FB681B8D3E
:102B3000002B17D0FB685B6A1A78FB681B681A6168
:102B4000FB685B6A5A1CFB685A62FB685B8D9BB230
:102B5000013B9AB2FB685A85FB681B8D013B9AB218
:102B6000FB681A857A69396AF86800F019FA034631
:102B7000002B0DD0FB681B6C042B07D1FB681B6876
:102B80001A68FB681B6842F400721A6001231AE09D
:102B9000FB681B8D002B94D1FB681B681A68FB68CF
:102BA0001B6842F400721A60FB68202283F83D2003
:102BB000FB68002283F83E20FB68002283F83C205B
:102BC000002300E0022318461837BD4680BD00BF31
:102BD000020010000000FFFF80B588B002AFF8606F
:102BE0007A603B600B467B81FB68DB6A7B617B69BB
:102BF000082B06D07B69012B03D07B6913F5803F3E
:102C000008D1FB681B681A68FB681B6842F4807275
:102C10001A600BE0FB681B6B122B07D1FB681B686B
:102C20001A68FB681B6842F480721A603B68009364
:102C30007B6800224FF00111F86800F04FF803465E
:102C4000002B0DD0FB681B681B6803F48073B3F581
:102C5000807F03D1FB684FF400721A64032335E0D0
:102C6000FB681B69B3F5804F08D17B89DBB21A463C
:102C7000FB681B6802F0FE021A611BE07B89DB1116
:102C8000DBB203F00603DBB263F00F03DAB2FB68DA
:102C90001B681A613B687A680E49F86800F098F87A
:102CA0000346002B01D0012310E07B89DAB2FB68D8
:102CB0001B681A613B687A680749F86800F088F871
:102CC0000346002B01D0012300E0002318461837EB
:102CD000BD4680BD080001000200010080B584B03F
:102CE00000AFF860B9603B601346FB7148E03B6899
:102CF000B3F1FF3F44D0FEF77DFC0246BB69D31A17
:102D00003A689A4202D33B68002B39D1BB681B0C4E
:102D1000DBB2012B0DD1FB681B685B69DA43BB6832
:102D200013409BB2002B0CBF01230023DBB21A46D9
:102D30000CE0FB681B689B69DA43BB6813409BB2DD
:102D4000002B0CBF01230023DBB21A46FB799A4209
:102D500016D1FB6800221A63FB68202283F83D200D
:102D6000FB68002283F83E20FB681B6C43F02002C6
:102D7000FB681A64FB68002283F83C20012323E0EF
:102D8000BB681B0CDBB2012B0DD1FB681B685B69B8
:102D9000DA43BB6813409BB2002B0CBF0123002316
:102DA000DBB21A460CE0FB681B689B69DA43BB6820
:102DB00013409BB2002B0CBF01230023DBB21A4649
:102DC000FB799A4293D0002318461037BD4680BD48
:102DD00080B584B000AFF860B9607A603B6071E0A4
:102DE000FB681B685B6903F48063B3F5806F23D1D4
:102DF000FB681B681A68FB681B6842F400721A6063
:102E0000FB681B686FF480625A61FB6800221A63DA
:102E1000FB68202283F83D20FB68002283F83E20D7
:102E2000FB681B6C43F00402FB681A64FB68002219
:102E300083F83C20012367E07B68B3F1FF3F41D07A
:102E4000FEF7D8FB02463B68D31A7A689A4202D34F
:102E50007B68002B36D1BB681B0CDBB2012B0CD17D
:102E6000FB681B685B69DA43BB6813409BB2002BAD
:102E700014BF01230023DBB20BE0FB681B689B69D6
:102E8000DA43BB6813409BB2002B14BF012300231D
:102E9000DBB2002B16D0FB6800221A63FB682022ED
:102EA00083F83D20FB68002283F83E20FB681B6C02
:102EB00043F02002FB681A64FB68002283F83C2080
:102EC000012321E0BB681B0CDBB2012B0CD1FB689A
:102ED0001B685B69DA43BB6813409BB2002B14BFCD
:102EE00001230023DBB20BE0FB681B689B69DA431C
:102EF000BB6813409BB2002B14BF01230023DBB23D
:102F0000002B7FF46DAF002318461037BD4680BDFF
:102F100080B584B000AFF860B9607A6034E0F868DA
:102F200000F086F80346002B01D0012334E0BB6893
:102F3000B3F1FF3F28D0FEF75DFB02467B68D31A52
:102F4000BA689A4202D3BB68002B1DD1FB681B688C
:102F50005B6903F08003802B16D0FB6800221A63A4
:102F6000FB68202283F83D20FB68002283F83E2086
:102F7000FB681B6C43F02002FB681A64FB680022AC
:102F800083F83C20012307E0FB681B685B6903F0C2
:102F90008003802BC3D1002318461037BD4680BD67
:102FA00080B584B000AFF860B9607A6034E0F8684A
:102FB00000F03EF80346002B01D0012334E0BB684B
:102FC000B3F1FF3F28D0FEF715FB02467B68D31A0A
:102FD000BA689A4202D3BB68002B1DD1FB681B68FC
:102FE0005B6903F00403042B16D0FB6800221A630C
:102FF000FB68202283F83D20FB68002283F83E20F6
:10300000FB681B6C43F02002FB681A64FB6800221B
:1030100083F83C20012307E0FB681B685B6903F031
:103020000403042BC3D1002318461037BD4680BDCE
:1030300080B483B000AF78607B681B685B6903F481
:103040008063B3F5806F1BD17B681B686FF480626F
:103050005A617B6800221A637B68202283F83D2036
:103060007B68002283F83E207B681B6C43F00402DF
:103070007B681A647B68002283F83C20012300E00F
:10308000002318460C37BD4680BC704780B586B01B
:1030900000AF78607B68002B01D1012372E27B686E
:1030A0001B6803F00103002B00F08780924B5B68E4
:1030B00003F00C03042B0CD08F4B5B6803F00C0364
:1030C000082B12D18C4B5B6803F48033B3F5803F3F
:1030D0000BD1894B1B6803F40033002B6CD07B6849
:1030E0005B68002B68D101234CE27B685B68B3F519
:1030F000803F06D1804B1B687F4A43F480331360C6
:103100002EE07B685B68002B0CD17B4B1B687A4AF6
:1031100023F480331360784B1B68774A23F48023B1
:1031200013601DE07B685B68B3F5A02F0CD1724B78
:103130001B68714A43F4802313606F4B1B686E4A0F
:1031400043F4803313600BE06B4B1B686A4A23F433
:1031500080331360684B1B68674A23F48023136035
:103160007B685B68002B13D0FEF744FA386108E0F7
:10317000FEF740FA02463B69D31A642B01D90323B8
:1031800000E25D4B1B6803F40033002BF0D014E029
:10319000FEF730FA386108E0FEF72CFA02463B6988
:1031A000D31A642B01D90323ECE1534B1B6803F4BE
:1031B0000033002BF0D100E000BF7B681B6803F0F8
:1031C0000203002B63D04C4B5B6803F00C03002B15
:1031D0000BD0494B5B6803F00C03082B1CD1464B0A
:1031E0005B6803F48033002B16D1434B1B6803F05C
:1031F0000203002B05D07B681B69012B01D0012342
:10320000C0E13D4B1B6823F0F8027B685B69DB0083
:10321000394913430B603AE07B681B69002B20D0CF
:10322000364B01221A60FEF7E5F9386108E0FEF737
:10323000E1F902463B69D31A022B01D90323A1E12C
:103240002D4B1B6803F00203002BF0D02A4B1B68A8
:1032500023F0F8027B685B69DB00274913430B60AE
:1032600015E0264B00221A60FEF7C4F9386108E029
:10327000FEF7C0F902463B69D31A022B01D903239A
:1032800080E11D4B1B6803F00203002BF0D17B682B
:103290001B6803F00803002B3AD07B689B69002B66
:1032A00019D0174B01221A60FEF7A4F9386108E023
:1032B000FEF7A0F902463B69D31A022B01D903237A
:1032C00060E10D4B5B6A03F00203002BF0D001209C
:1032D00000F0CEFA1CE00A4B00221A60FEF78AF9D1
:1032E00038610FE0FEF786F902463B69D31A022BDC
:1032F00008D9032346E100BF00100240000042420B
:1033000080044242924B5B6A03F00203002BE9D136
:103310007B681B6803F00403002B00F0A6800023E9
:10332000FB758B4BDB6903F08053002B0DD1884B71
:10333000DB69874A43F08053D361854BDB6903F037
:103340008053BB60BB680123FB75824B1B6803F491
:103350008073002B18D17F4B1B687E4A43F4807327
:103360001360FEF747F9386108E0FEF743F90246BB
:103370003B69D31A642B01D9032303E1754B1B6806
:1033800003F48073002BF0D07B68DB68012B06D13F
:103390006F4B1B6A6E4A43F0010313622DE07B689A
:1033A000DB68002B0CD16A4B1B6A694A23F00103CE
:1033B0001362674B1B6A664A23F0040313621CE026
:1033C0007B68DB68052B0CD1614B1B6A604A43F0BC
:1033D000040313625E4B1B6A5D4A43F001031362F0
:1033E0000BE05B4B1B6A5A4A23F001031362584BF4
:1033F0001B6A574A23F0040313627B68DB68002BC7
:1034000015D0FEF7F7F838610AE0FEF7F3F8024648
:103410003B69D31A41F28832934201D90323B1E0C8
:103420004B4B1B6A03F00203002BEED014E0FEF7B7
:10343000E1F838610AE0FEF7DDF802463B69D31A8D
:1034400041F28832934201D903239BE0404B1B6A2F
:1034500003F00203002BEED1FB7D012B05D13C4B89
:10346000DB693B4A23F08053D3617B68DB69002B27
:1034700000F08780364B5B6803F00C03082B61D0AB
:103480007B68DB69022B46D1334B00221A60FEF7C2
:10349000B1F8386108E0FEF7ADF802463B69D31A8F
:1034A000022B01D903236DE0294B1B6803F0007345
:1034B000002BF0D17B681B6AB3F5803F08D1244B09
:1034C0005B6823F400327B689B68214913434B609F
:1034D0001F4B5B6823F474127B68196A7B685B6A14
:1034E0000B431B4913434B601B4B01221A60FEF731
:1034F00081F8386108E0FEF77DF802463B69D31A8F
:10350000022B01D903233DE0114B1B6803F000732C
:10351000002BF0D035E0104B00221A60FEF76AF85D
:10352000386108E0FEF766F802463B69D31A022BC1
:1035300001D9032326E0064B1B6803F00073002B20
:10354000F0D11EE07B68DB69012B07D1012319E074
:103550000010024000700040600042420B4B5B686C
:10356000FB60FB6803F480327B681B6A9A4206D1D9
:10357000FB6803F470127B685B6A9A4201D00123F6
:1035800000E0002318461837BD4680BD00100240F9
:1035900080B584B000AF786039607B68002B01D1C2
:1035A0000123D0E06A4B1B6803F007033A689A4294
:1035B00010D9674B1B6823F0070265493B6813432A
:1035C0000B60634B1B6803F007033A689A4201D013
:1035D0000123B8E07B681B6803F00203002B20D0B6
:1035E0007B681B6803F00403002B05D0594B5B6814
:1035F000584A43F4E06353607B681B6803F0080398
:10360000002B05D0534B5B68524A43F46053536020
:10361000504B5B6823F0F0027B689B684D49134375
:103620004B607B681B6803F00103002B40D07B6874
:103630005B68012B07D1474B1B6803F40033002B59
:1036400015D101237FE07B685B68022B07D1414BDA
:103650001B6803F00073002B09D1012373E03D4B7D
:103660001B6803F00203002B01D101236BE0394BEF
:103670005B6823F003027B685B68364913434B6049
:10368000FDF7B8FFF8600AE0FDF7B4FF0246FB68FB
:10369000D31A41F28832934201D9032353E02D4BD0
:1036A0005B6803F00C027B685B689B009A42EBD17D
:1036B000274B1B6803F007033A689A4210D2244B49
:1036C0001B6823F0070222493B6813430B60204B21
:1036D0001B6803F007033A689A4201D0012332E0E5
:1036E0007B681B6803F00403002B08D0194B5B6850
:1036F00023F4E0627B68DB68164913434B607B6808
:103700001B6803F00803002B09D0124B5B6823F4FD
:1037100060527B681B69DB000E4913434B6000F06D
:1037200021F802460B4B5B681B0903F00F030A49A3
:10373000CB5C22FA03F3094A1360094B1B68184655
:10374000FDF716FF002318461037BD4680BD00BFA9
:103750000020024000100240F88200080000002013
:103760000400002080B487B000AF0023FB6000237A
:10377000BB6000237B6100237B6000233B611E4B09
:103780005B68FB60FB6803F00C03042B02D0082B82
:1037900003D027E0194B3B6127E0FB689B0C03F04B
:1037A0000F03174AD35C7B60FB6803F48033002B64
:1037B00010D0114B5B685B0C03F00103114AD35C22
:1037C000BB607B680D4A03FB02F2BB68B2FBF3F3FC
:1037D0007B6104E07B680C4A02FB03F37B617B693D
:1037E0003B6102E0054B3B6100BF3B6918461C375B
:1037F000BD4680BC704700BF0010024000127A0036
:10380000108300082083000800093D0080B400AF49
:10381000024B1B681846BD4680BC70470000002064
:1038200080B500AFFFF7F2FF0246054B5B681B0A4D
:1038300003F007030349CB5C22FA03F3184680BD6B
:10384000001002400883000880B500AFFFF7DEFFDC
:103850000246054B5B68DB0A03F007030349CB5CB8
:1038600022FA03F3184680BD0010024008830008C6
:1038700080B485B000AF78600A4B1B680A4AA2FB8F
:1038800003235B0A7A6802FB03F3FB6000BFFB685B
:103890005A1EFA60002BF9D100BF00BF1437BD4695
:1038A00080BC704700000020D34D621080B586B008
:1038B00000AF786000233B610023FB607B681B68DE
:1038C00003F00103002B7DD00023FB754F4BDB6918
:1038D00003F08053002B0DD14C4BDB694B4A43F076
:1038E0008053D361494BDB6903F08053BB60BB68F5
:1038F0000123FB75464B1B6803F48073002B18D122
:10390000434B1B68424A43F480731360FDF772FE19
:10391000386108E0FDF76EFE02463B69D31A642B5E
:1039200001D903236DE03A4B1B6803F48073002B2D
:10393000F0D0364B1B6A03F44073FB60FB68002B2E
:103940002ED07B685B6803F44073FA689A4227D0F4
:103950002E4B1B6A23F44073FB602E4B01221A602E
:103960002C4B00221A60294AFB681362FB6803F0A3
:103970000103002B14D0FDF73DFE38610AE0FDF78E
:1039800039FE02463B69D31A41F28832934201D98B
:10399000032336E01D4B1B6A03F00203002BEED01D
:1039A0001A4B1B6A23F440727B685B681749134308
:1039B0000B62FB7D012B05D1144BDB69134A23F00D
:1039C0008053D3617B681B6803F00203002B08D08F
:1039D0000E4B5B6823F440427B689B680B491343A2
:1039E0004B607B681B6803F01003002B08D0074B6B
:1039F0005B6823F480027B68DB68044913434B60F7
:103A0000002318461837BD4680BD00BF0010024095
:103A1000007000404004424280B588B000AF78603A
:103A200000237B610023FB6100233B610023FB60DB
:103A30000023BB617B68102B0AD07B68102B00F23F
:103A40008A807B68012B45D07B68022B75D082E091
:103A5000464B5B68FB60454B1B6803F08073002B93
:103A60007BD0FB689B0C03F00F03414AD35C3B61A6
:103A7000FB6803F48033002B15D03C4B5B685B0C78
:103A800003F001033B4AD35C7B61FB6803F48033A2
:103A9000002B0DD0384A7B69B2FBF3F23B6902FB85
:103AA00003F3FB6104E03B69344A02FB03F3FB616F
:103AB0002E4B5B6803F48003B3F5800F02D1FB69E2
:103AC000BB614AE0FB695B002D4AA2FB03235B0854
:103AD000BB6142E0254B1B6AFB60FB6803F440734B
:103AE000B3F5807F08D1FB6803F00203002B03D0FD
:103AF0004FF40043BB611FE0FB6803F44073B3F570
:103B0000007F09D1194B5B6A03F00203002B03D03D
:103B100049F64043BB610FE0FB6803F44073B3F523
:103B2000407F1CD1114B1B6803F40033002B16D0CF
:103B30004FF22443BB6112E011E0FFF785FE02461D
:103B40000A4B5B689B0B03F0030301335B00B2FB82
:103B5000F3F3BB6104E000BF02E000BF00E000BF80
:103B6000BB6918462037BD4680BD00BF001002402B
:103B7000248300083483000800127A0000093D0005
:103B8000ABAAAAAA002B2DE9F0471F46BBBF03F141
:103B900000431F4600232D2388B01446129A109D1F
:103BA0001370149BDDF84CA023F02008B8F1460FE9
:103BB00005D0B8F1450F00D10135022300E0032301
:103BC00007AA049206AACDE902A2CDE90035224651
:103BD0003B4601F071F8B8F1470F064602D1119B40
:103BE000DB0722D5B8F1460F06EB050910D1337873
:103BF000302B0AD10022002320463946FCF7D4FEA0
:103C000018B9C5F10105CAF80050DAF80030994436
:103C10000022002320463946FCF7C6FE08B1CDF845
:103C20001C903022079B4B4507D33046079B159AC3
:103C30009B1B136008B0BDE8F087591C07911A70F0
:103C4000F0E70346F7B5002903F8022BB6BF2D2293
:103C50002B224942092942702ADD0DF1070217463D
:103C60000A2691FBF6F5944606FB151430340CF841
:103C7000014C0C46632C294602F1FF32F1DC303155
:103C8000ACF1020402F8011C2246411CBA420AD3DC
:103C90000DF10902A2EB0C02BC4288BF00221344C2
:103CA000181A03B0F0BD12F8015B01F8015FEDE7EF
:103CB000302330318370C170031DF1E72DE9F04FDF
:103CC00091B00C46DDF8688016461F46054600F0A8
:103CD000E1FE036818460993FCF73AFA00230E93B5
:103CE000D8F800300A90073323F0070303F10802E5
:103CF00094F81890D4F800B0C8F80020D3E900A8D0
:103D000052464346C4E9122328F000430B934FF078
:103D1000FF3250469C4B0B99FCF778FE70BB4FF07E
:103D2000FF325046984B0B99FCF752FE30BB0022F5
:103D3000002350464146FCF741FE10B12D2384F884
:103D40004330924A924BB9F1470F94BF9046984640
:103D500003234FF0000A23612BF004032360334652
:103D60002146284600970FAA00F0D6F9013040F00E
:103D700090804FF0FF3011B0BDE8F08F52464346BF
:103D800050464146FCF742FE48B1B8F1000FB8BFBB
:103D90002D23804AB8BF84F843307F4BD3E7636854
:103DA00009F0DF015A1C42D106236360002206920B
:103DB0000EAACDE904920DAA4BF4806303920DF193
:103DC0003302CDE9013223606368524600932846EE
:103DD00043460B91FFF7D6FE0B99804647290D9974
:103DE00008D1C81C02DB6368994240DDA9F10209D1
:103DF0005FFA89F9B9F1650F1FD84A46013904F114
:103E000050000D91FFF71DFF0E9A82461318012AEC
:103E1000236102DC2268D20701D5013323619DF8BA
:103E20003330002B9BD02D2384F8433097E747296C
:103E3000BCD1002BBAD10123B7E7B9F1660F18D175
:103E4000002963680BDD216113B92268D00702D510
:103E500001330B4423614FF0000AA165DFE713B97A
:103E60002268D20701D50233F4E70123F2E74FF0CD
:103E700067090E9B994205DB23682161D807EAD5C3
:103E80004B1CE7E70029CCBF0122C1F10202134419
:103E9000E0E723685A0507D423694246314628469D
:103EA000B84701302BD164E7B9F1650F40F2DD80EE
:103EB000D4E9120100220023FCF776FD002833D05C
:103EC000012331462846354AB84701303FF451AF07
:103ED000DDE90D239A4202DB2368D8070FD5DDE91F
:103EE000092331462846B84701303FF442AF4FF02E
:103EF000000804F11A090E9B013B434509DC2368C5
:103F00009B0700F10481E0680F9B9842B8BF1846F8
:103F100031E701234A4631462846B84701303FF48D
:103F200028AF08F10108E6E70D9B002B38DC0123E0
:103F300031462846194AB84701303FF41AAFDDE947
:103F40000D32134302D12368D907D8D5DDE90923FF
:103F500031462846B84701303FF40BAF4FF0000917
:103F600004F11A0A0D9B5B424B4501DC0E9B94E762
:103F70000123524631462846B84701303FF4F9AE96
:103F800009F10109EEE700BFFFFFEF7F368300086C
:103F90003A8300083E8300084283000846830008F5
:103FA0000E9AA36D9A42A8BF1A46002A914637DCA2
:103FB0004FF0000B29EAE97904F11A02D4F858A06D
:103FC000AAEB09035B4533DCDDE90D239A423BDBB9
:103FD0002368DA0738D4DDE90D32A2EB0309A2EB3E
:103FE0000A029145A8BF9146B9F1000F34DC4FF0A9
:103FF000000829EAE97904F11A0ADDE90D239B1A80
:10400000A3EB090343457FF77AAF012352463146BC
:104010002846B84701303FF4ACAE08F10108ECE7A0
:104020001346314642462846B8470130C0D1A0E683
:104030000123314628460B92B84701303FF499AE30
:104040000B9A0BF1010BB9E73146DDE9092328464C
:10405000B8470130BFD18CE64B463146284608EBC5
:104060000A02B8470130C2D183E60E9A012A01DC68
:10407000DB0739D50123424631462846B84701308F
:104080003FF477AEDDE9092331462846B8470130D1
:104090003FF46FAED4E9120100220023DDF838901E
:1040A000FCF782FCD8B909F1FF3308F1010231466F
:1040B0002846B84701300ED15BE601234A46314617
:1040C0002846B84701303FF454AE08F101080E9B72
:1040D000013B4345F1DC534604F15002DEE64FF06C
:1040E000000804F11A09F2E701234246DFE7012341
:1040F0004A4631462846B84701303FF43AAE08F107
:104100000108E3680F995B1A4345F0DCFBE64FF0CA
:10411000000804F11909F4E72DE9F047164699461D
:104120008A680B6907469342B8BF1346336091F81B
:1041300043200C46DDF820800AB101333360236848
:10414000990642BF336802333360256815F00605CF
:1041500006D104F1190AE36832689B1AAB422BDCE2
:1041600094F84320131E226818BF0123920630D40E
:104170004946384604F14302C047013023D0236842
:10418000226903F00603042B14BF002533684FF0A7
:10419000000608BFE56804F11A0408BFED1A54F8D8
:1041A000123C08BF25EAE5759342C4BF9B1AED187F
:1041B000B5421AD1002008E001235246494638464C
:1041C000C047013003D14FF0FF30BDE8F087013523
:1041D000C1E73020E11881F843005A1C94F84510DB
:1041E0002244023382F84310C2E7012322464946A3
:1041F0003846C0470130E6D00136D9E72DE9FF4700
:104200000F7E9146782F80460C469A460C9D01F110
:10421000430207D8622F0AD8002F00F0D580582F0C
:1042200000F0C18004F1420584F842703AE0A7F141
:104230006303152BF6D801A151F823F0954200082D
:10424000A94200082542000825420008254200082E
:1042500025420008A942000825420008254200081E
:104260002542000825420008AF430008D542000857
:10427000694300082542000825420008D143000890
:1042800025420008D54200082542000825420008C2
:10429000714300082B681A1D1B682A6004F142054F
:1042A00084F842300123A0E020682B68070603F160
:1042B0000401296001D51E6803E04606FBD5B3F969
:1042C0000060002E03DA2D23764284F843300A235F
:1042D000594812E02B682068191D2960050601D590
:1042E0001E6802E04106FBD51E886F2F0CBF082315
:1042F0000A235148002184F843106568002DA8BFA7
:104300002168A560A4BF21F0040121600EB9002D31
:104310004BD01546B6FBF3F103FB1167C75D05F8FB
:10432000017D3746BB420E46F4D9082B0BD12368DA
:10433000DE0708D5236961689942DEBF302305F89E
:10434000013C05F1FF35521B22614B462146404698
:10435000CDF800A003AAFFF7DFFE01304AD14FF0ED
:10436000FF3004B0BDE8F087236843F020032360EA
:104370007827324884F84570236829681F0651F869
:10438000046B02D45F0648BFB6B2DF0748BF43F0F4
:104390002003296048BF23601EB9236823F020034F
:1043A00023601023A6E72448E4E71546BDE72B6801
:1043B0002668181D6169286035061B6801D51960DB
:1043C00002E07006FBD51980002315462361BCE787
:1043D0002B6800211A1D2A601D686268284600F0BB
:1043E000CFFB08B1401B606063682361002384F841
:1043F0004330AAE72A46494640462369D047013060
:10440000ADD023689B0713D4E068039B9842B8BFE4
:104410001846A6E70123324649464046D0470130B8
:104420009DD00135E36803995B1AAB42F2DCEBE700
:10443000002504F11906F5E74883000859830008B0
:104440002DE9F04F87B003938B6817465A1EB2F5DB
:10445000AE7F85BF6FF4AE755B190023029388BFF2
:1044600040F25D138B464FF000058CBF8B600293CA
:104470000B68804643F4F0634BF81C3B0C465E46E9
:10448000AA46A946CDE904550195A26852B13B68F8
:104490001B784E2B64D8402B3CD8A3F12B01C8B21B
:1044A0000E283AD9B9F1000F03D0236823F48073A2
:1044B00023600AF1FF3ABAF1010F00F213815E4561
:1044C00000F205810125284607B0BDE8F08FA3F171
:1044D00061020D2AE6D801A151F822F01B4600081E
:1044E000A5440008A5440008A54400087B46000830
:1044F00053460008A5440008A544000829460008C2
:10450000A5440008A5440008A5440008A5440008E7
:10451000E1450008A3F14102DBE70E29C2D801A062
:1045200050F821F0D3450008A5440008D345000801
:1045300067460008A544000881450008BD450008FD
:10454000BD450008BD450008BD450008BD45000843
:10455000BD450008BD450008BD450008BD45000833
:104560006E2B09D8602BB2D8542B77D0592B99D108
:10457000072D97D1082529E0742B6FD0792BF6E70A
:104580002168C8051AD5029B21F08001216009F13C
:1045900001091BB1013B01320293A260A368013BF8
:1045A000A3602369013323617B68013B002B7B609F
:1045B00040F384803B6801333B6066E71AEB050FEC
:1045C0007FF470AF226822F4C072226006F8013BCB
:1045D000E4E7226810067FF565AF22F08002F4E779
:1045E000BAF1000F0ED1B9F1000F0ED1226802F41A
:1045F000E061B1F5E06F08D122F4F0624FF0010AFA
:104600002260E3E7BAF1020F55D0012D02D0042D4C
:104610007FF448AF0135EDB2D8E7BAF1010F7FF46E
:1046200041AF4FF0020AD1E77DB9B9F1000F7FF435
:104630003CAF226802F4E061B1F5E06F7FF439AF7E
:1046400022F4F06201252260C0E7032DE2D0052D9F
:10465000DEE7022D7FF426AF0325B7E7062D7FF4B2
:1046600021AF0725B2E7226891057FF51BAF22F441
:1046700020722260CDF80490A8E7226802F4A061BD
:10468000B1F5806F06D050057FF50CAFB9F1000F82
:104690003FF40FAF910558BF019922F4F06258BF63
:1046A000A9EB010142F4C0724FF0000958BFCDE9F7
:1046B000041622608AE74FF0030A87E7394640462E
:1046C000D4F88031984700283FF4DFAEEAE6D4F80A
:1046D0007C313A46404616F8011D98472369013B54
:1046E0002361ECE66B1E062B25D8022D36D85E45DD
:1046F0007FF6E8AED4F87C313A46404616F8011D04
:1047000098472369013B2361F1E70298D4F87C3193
:1047100010F8011D3A460290404698472369013B34
:1047200023610AF1FF3A5FFA8AFABAF1020FECD17B
:10473000033DEDB2761B2368DA052FD55B0510D556
:104740005E457FF6BFAED4F87C313A46404616F857
:10475000011D98472369013B2361F1E7AA460296B0
:10476000DFE716F8011C2369652903F1FF3306F121
:10477000FF3523610CD045290AD0D4F87C313A4664
:1047800040469847236916F8021C013BB51E236179
:104790003A464046D4F87C3198472E46256815F0B5
:1047A000100555D13570236803F4C063B3F5806FED
:1047B0001DD1019B4B45A3EB090225D1002259468F
:1047C000404602F00DFC039BD4F800C01B681CF0AF
:1047D000020F06460F4603F1040220D003990A6037
:1047E0001B68C3E90067E3680133E3606BE6049B81
:1047F000002BE3D005990A232A464046013102F0F6
:1048000073FC049B059EC21A04F26F139E4228BFDC
:1048100004F5B77630460F4900F0D0F8CEE71CF02B
:10482000040FDBD1DDF80CC0CCF80020D3F80080F9
:1048300002460B46FCF7EAF828B1074800F0AEF94B
:10484000C8F80000CFE730463946FCF73DF9F7E7F6
:10485000002538E66A830008FD860008002310B5AD
:104860000446C0E90033C0E90433836081814366B4
:10487000C2818361194608225C3000F002F9054BC1
:1048800024626362044BA362044BE362044B236320
:1048900010BD00BFFD4900081F4A0008574A000824
:1048A0007B4A0008024A0349034800F069B800BF88
:1048B0000C000020A17400081800002041680C4B77
:1048C00010B59942044601D002F0EAFDA168094BF7
:1048D000994202D0204602F0E3FDE168064B99427E
:1048E00004D02046BDE8104002F0DABD10BD00BF84
:1048F00080020020E80200205003002010B50B4B7E
:104900000B4C0C4A20461A6004210022FFF7A6FF38
:1049100004F1680001220921FFF7A0FF04F1D00093
:104920000222BDE810401221FFF798BFB803002013
:1049300080020020A5480008014800F01FB900BF10
:10494000C1030020014800F01AB900BFC1030020D4
:1049500010B50446FFF7F0FF236A1BB1BDE8104015
:10496000FFF7F0BF044B2362044B1B68002BF5D10B
:10497000FFF7C4FFF2E700BFBD480008B8030020FE
:104980002DE9F8430746884614460026D4E90195E8
:10499000B9F1010905D52468002CF7D13046BDE8EE
:1049A000F883AB89012B07D9B5F90E30013303D059
:1049B00029463846C04706436835E9E70EB46FF02C
:1049C000004100B59CB01DAB029006900791049188
:1049D0000848094953F8042B0591006802A901937E
:1049E00002F0DEFB0022029B1A701CB05DF804EBA3
:1049F00003B07047640000200802FFFF10B50C46AA
:104A0000B1F90E1000F06CF80028ABBF636DA389FC
:104A10001B1823F48053ACBF6365A38110BD2DE93F
:104A2000F0411F468B890546DB050C46164605D529
:104A300002230022B1F90E1000F040F8A38932469B
:104A400023F48053A38128463B46B4F90E10BDE8F9
:104A5000F04100F057B810B50C46B1F90E1000F057
:104A60002DF8431CA38915BF606523F4805343F4DC
:104A70008053A38118BFA38110BDB1F90E1000F0BF
:104A80000DB803460244934200D1704703F8011B5E
:104A9000F9E70000004870475801002038B50023AE
:104AA000054D044608462B60FCF7BAFC431C02D1B6
:104AB0002B6803B1236038BDBC03002038B5044621
:104AC000084611460022054D2A601A46FCF7CCFC28
:104AD000431C02D12B6803B1236038BDBC03002006
:104AE00038B50446084611460022054D2A601A468C
:104AF000FCF75DFC431C02D12B6803B1236038BD79
:104B0000BC03002038B50446084611460022054D76
:104B10002A601A46FCF768FC431C02D12B6803B1DB
:104B2000236038BDBC030020014B1868704700BFEC
:104B30006400002070B500260C4D0D4C641BA410C1
:104B4000A64209D103F0BEFB00260A4D0A4C641BA5
:104B5000A410A64205D170BD55F8043B9847013614
:104B6000EEE755F8043B98470136F2E76087000806
:104B700060870008608700086487000870477047F6
:104B8000034610B5C9B202449342184601D1002031
:104B900003E0047801338C42F6D110BD0048704721
:104BA0000000C07F2DE9F74F03690C690746A34257
:104BB0007FDB013C00F1140501F1140805EB8403CF
:104BC000019358F8243055F8242001339A42B2FB5F
:104BD000F3F64FEA840B08EB840931D34FF0000E53
:104BE0004046AC46F24650F8042B93B206FB03E372
:104BF0004FEA124E1A0C9BB206FB0E22AAEB0303DD
:104C0000DCF800A04FEA124E1FFA8AFA5344DCF88F
:104C100000A092B2C2EB1A4202EB23429BB243EADB
:104C2000024381454FEA224A4CF8043BDBD255F857
:104C30000B302BB9019B043B9D421A462DD33C619E
:104C4000384601F0DDF9002823DB29460020013633
:104C500058F8042BD1F800C093B2C31A120C1FFAF3
:104C60008CF00344C2EB1C4202EB23429BB243EAAA
:104C70000243C1454FEA224041F8043BE8D255F8CF
:104C8000242005EB840322B9043B9D421A460AD333
:104C90003C61304603B0BDE8F08F1268043B002A47
:104CA000CDD1013CC8E71268043B002AF0D1013C99
:104CB000EBE70020EEE700002DE9F04F16461F4617
:104CC000C46999B00546CDE90467DDF8948074B9EC
:104CD000102000F01DFE0246E86120B9EF21AC4B28
:104CE000AC4802F055FCC0E901440460C460EB69C3
:104CF000196851B15A68012393404A608B60284675
:104D000000F0FAFE0022EB691A603B1EAFBF0023E1
:104D1000012223F000430593A8BFC8F80030DDF856
:104D200014909D4BB8BFC8F8002033EA090319D18D
:104D300042F20F73249A1360C9F31303334300F054
:104D40008985269B53B9954B23E0954B03930833F4
:104D5000269A1360039819B0BDE8F08F8F4B039328
:104D60000333F5E7DDE90434CDE90C34DDE90C016A
:104D700000220023FBF718FE804660B10123249A2D
:104D80001360269B002B00F06285864B269A1360E9
:104D9000013B0393DEE716AB019317AB0093284664
:104DA000DDE90C2301F03CFAC9F30A548246002CD9
:104DB0007ED0DDE90C010D9BA4F2FF34C3F3130395
:104DC00043F07F5343F44013CDF84C801946002242
:104DD000754BFBF7C9F968A3D3E90023FBF77CFB0C
:104DE00067A3D3E90023FBF7C1F9064620460F4627
:104DF000FBF708FB64A3D3E90023FBF76DFB024636
:104E00000B4630463946FBF7B1F906460F46FBF72D
:104E100013FE00228346002330463946FBF7CEFDC1
:104E200048B15846FBF7EEFA32463B46FBF7BCFD6D
:104E300008B90BF1FF3BBBF1160F57D8DDE90C01A8
:104E40005A4B03EBCB03D3E90023FBF7B7FD002854
:104E50004ED000230BF1FF3B0F93169B1B1B5A1EDA
:104E600046BFC3F1010900234FF00009099248BF72
:104E70000993BBF1000F3DDB099BCDF838B05B44D3
:104E8000099300230A93229B092B67D8052BC4BFE3
:104E9000043B2293229BC8BF0024A3F10203D8BF86
:104EA0000124032B00F28680DFE803F02C3937560B
:104EB000DDE916431C4404F23243202BC1BFC3F189
:104EC000400309FA03F904F2124326FA03F3D6BFAA
:104ED000C3F1200349EA030006FA03F0FBF782FA64
:104EE0000122A1F1F873013C13926FE70123B3E7AC
:104EF0000F90B2E7CBF100030A930023A9EB0B0953
:104F00000E93C0E700230B93239B002B55DC01235A
:104F10001A460693089323920BE00123F3E700233C
:104F20000B93239B5B4406930133012B0893B8BF7B
:104F3000012300210422E86902F114069E4240D9AF
:104F40004160284600F098FD039000283CD10246BD
:104F500040F2AF11164BC3E60123E1E70124002321
:104F60000B9422934FF0FF330022069308931223F1
:104F7000D1E700BFAFF3008061436F63A787D23FE3
:104F8000B3C8608B288AC63FFB799F501344D33F38
:104F90007C830008938300080000F07F788300087A
:104FA0006F830008478300080000F83F80840008F2
:104FB000EB83000801230B93D4E7239B069308930C
:104FC000B7E701315200B7E7EB69039A1A60089B13
:104FD0000E2B00F2A880002C00F0A580BBF1000F82
:104FE00034DD9A4B0BF00F0203EBC2031BF4807FFE
:104FF000D3E90034CDE910344FEA2B1416D0DDE9A3
:105000000C01934B0327D3E90823FBF78FFBCDE972
:10501000040104F00F048E4E54B9DDE91023DDE9DC
:105020000401FBF783FBCDE9040129E00227F2E745
:10503000E10708D5DDE91001D6E90023FBF74CFABA
:10504000CDE91001013764100836E5E700F0A580CE
:10505000DDE90C01CBF100047C4B04F00F0203EB03
:10506000C203D3E90023FBF737FA02270023CDE977
:105070000401774E2411002C40F08480002BD2D103
:10508000DDE90434CDE910340F9B002B00F087805C
:10509000DDE9100100226F4BFBF790FC00287ED069
:1050A000089B002B7BD0069B002B38DDDDE910012F
:1050B0000022694BFBF710FACDE90401069C0BF1C5
:1050C000FF3801373846FBF79DF9DDE90423FBF78C
:1050D00003FA0022614BFBF749F8A1F15076CDE9C4
:1050E00010011196002C5DD1DDE9040100225C4B1A
:1050F000FBF73AF802460B46CDE904233346109AF3
:10510000FBF77AFC002840F09582DDE90401109A53
:1051100006F10043FBF752FC002840F08982DDE9EC
:105120000C34CDE90434179B002BC0F25181BBF144
:105130000E0F00F34D81454B03EBCB03D3E9003455
:10514000CDE90634239B002B80F2DA80089B002BEC
:1051500000F3D68040F06B82DDE906010022404B6F
:10516000FBF7BAF9DDE90423FBF73CFC089C264673
:10517000002840F041823123039F0BF1010B07F817
:10518000013B3DE2E20705D5D6E90023FBF7A4F990
:1051900001230137641008366DE7022770E7D8460F
:1051A000089C8FE70399294B214412910B9903EB3B
:1051B000C403DDE9106753E90223002954D000201D
:1051C0002849FBF7B3FA3B463246FAF7CDFFCDE963
:1051D0001001039FDDE90401FBF72EFC0446FBF7F9
:1051E00011F902460B46DDE90401FAF7BDFF02465C
:1051F0000B463034CDE90423DDE9102307F8014BD9
:10520000FBF7DCFB002873D1DDE904230020114902
:10521000FAF7AAFFDDE91023FBF7D0FB002840F0E6
:10522000B680129B9F423FF47AAFDDE91001002265
:10523000094BFBF751F90022CDE91001DDE904012A
:10524000054BFBF749F9CDE90401C3E78084000869
:10525000588400080000F03F0000244000001C407B
:10526000000014400000E03F30463946FBF734F9B7
:10527000129BCDE91001039C1493DDE90401FBF7B7
:10528000DBFB1590FBF7BEF802460B46DDE9040197
:10529000FAF76AFF159B0646303304F8013B129B70
:1052A0000F469C424FF0000224D1DDE91001AF4BC4
:1052B000FAF75CFF02460B4630463946FBF79CFB8B
:1052C000002863D1DDE910230020A849FAF74CFF3C
:1052D00002460B4630463946FBF770FB00283FF488
:1052E0001EAF149F7B1E149317F8013C302BF8D08F
:1052F000C3463BE09E4BFBF7EFF8CDE90401BCE76A
:10530000039FDDE90489DDE9062340464946FBF7B2
:105310000DFAFBF791FB0446FBF774F8DDE9062371
:10532000FBF7DAF802460B4640464946FAF71CFFFF
:1053300004F1300607F8016B039EDDF820C0BE1BA8
:10534000B44502460B4636D1FAF710FFDDE90623D5
:1053500080468946FBF750FB58BBDDE906234046F3
:105360004946FBF721FB08B1E30722D45146284602
:1053700000F0C2FB0023249A3B700BF10103136081
:10538000269B002B3FF4E6AC1F60E3E427463B4638
:105390001F4613F8012D392A07D1039A9A42F7D1F3
:1053A0003022039908F101080A701A7801321A7044
:1053B0009EE7D846EBE700226D4BFBF78DF8002205
:1053C000002380468946FBF7EFFA00289BD0CDE703
:1053D0000B9A002A00F0C480229A012A00F3A880C8
:1053E000139A002A00F0A08003F233434F460A9C30
:1053F000099A01211A4428469944099200F07CFC3C
:1054000006465FB1099B002B08DDBB42A8BF3B46A7
:10541000099AA9EB0309FF1AD31A09930A9BF3B15E
:105420000B9B002B00F0A080002C10DD31462246A3
:10543000284600F01FFD524601460646284600F069
:1054400071FC80465146284600F056FBC2460A9B36
:105450001A1B04D05146284600F00CFD824601215B
:10546000284600F049FC0E9B0446002B40F3828046
:105470001A460146284600F0FDFC229B0446012BFB
:105480007BDD4FF00008236904EB8303186900F00B
:10549000E5FBC0F12000099B184410F01F0000F04C
:1054A0009280C0F12003042B40F38580099BC0F15A
:1054B0001C000344814407440993B9F1000F05DD42
:1054C00051464A46284600F02FFD8246099B002B94
:1054D00005DD21461A46284600F026FD04460F9BAE
:1054E000002B72D02146504600F08AFD00286CDA6D
:1054F000002351460A22284600F020FB0B9B8246DF
:105500000BF1FF3B002B00F0AC81002331460A2257
:10551000284600F013FB069B0646002B00F3938001
:10552000229B022B59DC8EE0169BC3F136035DE70C
:10553000089B5C1E0A9BA342BFBF0A9B0E9AE31AFC
:10554000D218A8BF1C1B089BBEBF0A940E92002451
:10555000002BB5BFA9EB03074F460023089B47E785
:105560004F460A9C0B9E4CE70A9A73E70000E03F07
:1055700000002440229B012B18DC049BB3B9059B3F
:10558000C3F3130393B9059B23F000431B0D1B05C5
:105590007BB14FF00108099B09F10109013309931F
:1055A0000E9B002B7FF46FAF012074E74FF00008D3
:1055B000F6E79846F4E780D0099A1C331A449944D8
:1055C0001F44099279E70346F6E7089B002B34DC79
:1055D000229B022B31DD089B0693069B63B9214673
:1055E0000522284600F0AAFA01460446504600F07B
:1055F00007FD00283FF7BFAD239B039F6FEA030B16
:105600004FF000082146284600F076FA002E3FF4BD
:10561000ADAEB8F1000F05D0B04503D041462846E5
:1056200000F06AFA3146284600F066FA9EE6002449
:105630002646E1E7C34626469DE50B9B002B00F07E
:10564000C880089B0693002F05DD31463A46284660
:1056500000F06AFC0646B8F1000F5BD0284671687E
:1056600000F00AFA074628B9024640F2EF21814BC2
:10567000FFF736BB326906F10C01023292000C30A2
:1056800001F072FF01223946284600F04DFCB04679
:105690000646039B039A01330893069B13440B931E
:1056A000049B03F001030A93089B2146013B5046EB
:1056B0000493FFF777FA4146069000F1300950460F
:1056C00000F09EFC324609902146284600F0B4FCCA
:1056D000C268074602BB0146504600F091FC0246F4
:1056E000394628460C9200F007FA229B0C9A089F34
:1056F00043EA02010A9B194310D1B9F1390F29D0AD
:10570000099B002B02DD069B03F13109049B83F802
:10571000009077E73046BAE70122E1E7099B002BCA
:1057200004DB22990B430A990B4320D1002AEDDDBB
:1057300051460122284600F0F7FB2146824600F040
:105740005FFC002803DCE1D119F0010FDED0B9F1D4
:10575000390FD8D13923049A13703B461F4617F8E6
:10576000012C013B392A6BD001321A704AE7002A1A
:1057700007DDB9F1390FEDD0049A09F10103137077
:1057800040E7089B0B9A03F8019C934242D0514694
:1057900000230A22284600F0D1F9B04582464FF096
:1057A00000034FF00A024146284607D100F0C6F92F
:1057B00080460646089B0133089375E700F0BEF962
:1057C0003146804600230A22284600F0B7F90646F3
:1057D000F0E7089B0693039F21465046FFF7E2F946
:1057E000039B00F1300907F8019BFA1A069B9342CC
:1057F00007DD514600230A22284600F09FF9824621
:10580000EAE7069B4FF00008002BCCBF1F4601279C
:10581000039B1F4451460122284600F085FB214688
:10582000824600F0EDFB002897DC02D119F0010F51
:1058300093D13B461F4613F8012D302AFAD0E1E6FA
:10584000039A9A428AD131230BF1010B97E70A4B55
:10585000FFF79FBA269B002B7FF477AA074BFFF731
:1058600098BA069B002BB6DC229B022B3FF7B5AE05
:10587000B1E700BFEB830008468300086F83000890
:1058800038B50546002940D051F8043C0C1F002BC8
:10589000B8BFE41800F0E4F81C4A136833B9636039
:1058A00014602846BDE8384000F0E0B8A34208D9AB
:1058B000206821188B4201BF19685B6809182160B4
:1058C000EDE71A465B680BB1A342FAD9116850188C
:1058D000A0420BD120680144501883421160E0D1EE
:1058E00018685B68084410605360DAE702D90C233B
:1058F0002B60D6E7206821188B4201BF19685B68CE
:105900000918216063605460CBE738BDC4030020F0
:10591000024B0146186800F023B800BF6400002065
:1059200070B50E4E0C463168054611B901F00CFEFB
:1059300030602146284601F007FE431C0AD0C41CF3
:1059400024F00304A04207D0211A284601F0FCFDF0
:10595000013001D14FF0FF34204670BDC803002054
:105960002DE9F843CD1C25F0030508350C2D38BF73
:105970000C25002D074601DBA94205D90C23002682
:105980003B603046BDE8F883DFF8D08000F068F86F
:10599000D8F800301C465CBB29463846FFF7C0FFEC
:1059A000431C044655D1D8F800402646002E45D168
:1059B000002C48D023683146384604EB030901F037
:1059C000C3FD81453FD1216838466D1A2946FFF74E
:1059D000A7FF013037D023682B442360D8F800306C
:1059E000002B38D05A68A2422BD100225A600FE017
:1059F0002268521B1FD40B2A17D96119A3422560B4
:105A000018BF5960636808BFC8F8001062514B6046
:105A1000384604F10B0600F029F826F00706231D8E
:105A2000F21AAED09B1BA350ABE7A3426268DDD154
:105A3000C8F80020ECE723466468ACE73446766893
:105A4000B4E71346CCE70C2338463B6000F00EF871
:105A500097E72560DCE75B60FFDE00BFC403002042
:105A60000148FFF78BB800BFC00300200148FFF7D3
:105A700086B800BFC003002070B5C66904460D4655
:105A800076B91020FFF744FF0246E06120B96B2190
:105A9000174B184801F07CFDC0E901660660C6603E
:105AA000E669F36883B1E369DB6853F82500B8B9A8
:105AB000012101FA05F6721D2046920001F086FDD3
:105AC00060B1C0E901560EE021220421204601F018
:105AD0007DFDE369F060DB68002BE4D1002070BD40
